:020000040800F2
:10000000781700208D020008852000085919000883
:10001000A71C000863030008F13F0008000000006F
:10002000000000000000000000000000452C000857
:10003000A31600080000000019290008972F0008E7
:10004000A7020008A7020008A7020008A7020008EC
:10005000A7020008A7020008A7020008A7020008DC
:10006000A7020008A7020008A7020008A7020008CC
:10007000A7020008A7020008A7020008A7020008BC
:10008000A7020008A7020008A7020008B1040008A0
:1000900075040008A7020008A7020008A7020008CC
:1000A000A7020008A7020008A7020008A70200088C
:1000B0003D300008A7020008A7020008A7020008B8
:1000C000A7020008A7020008A7020008A70200086C
:1000D000A702000835350008A702000835370008D8
:1000E000A7020008A7020008A7020008A70200084C
:1000F000A7020008A7020008A7020008A70200083C
:10010000A7020008A70200085D300008A702000847
:10011000A7020008A70200082D310008A702000866
:10012000A7020008A7020008A7020008A70200080B
:10013000A7020008A7020008A70200082506000879
:10014000E9050008A7020008A7020008A7020008A6
:10015000A7020008A7020008A7020008BD3B00088C
:10016000A7020008A7020008A7020008A7020008CB
:10017000A7020008A7020008A7020008A7020008BB
:10018000A7020008A7020008A7020008A7020008AB
:10019000A7020008A7020008A7020008A70200089B
:1001A0000000000000000000A702000800F002F8B4
:1001B00000F05CF80AA090E8000C82448344AAF1A5
:1001C0000107DA4501D100F051F8AFF2090EBAE8A3
:1001D0000F0013F0010F18BFFB1A43F0010318477B
:1001E000E0EC000000ED00000A444FF0000C10F8B5
:1001F000013B13F0070408BF10F8014B1D1108BFA5
:1002000010F8015B641E05D010F8016B641E01F844
:10021000016BF9D113F0080F1EBF10F8014BAD1C94
:100220000C1B09D16D1E58BF01F801CBFAD505E0B2
:1002300014F8016B01F8016B6D1EF9D59142D6D30C
:10024000704700000023002400250026103A28BF34
:1002500078C1FBD8520728BF30C148BF0B60704738
:100260001FB50EF012FC1FBD10B510BD00F044F814
:100270001146FFF7F5FF05F09FF800F062F803B4B0
:10028000FFF7F2FF03BC00F065F800000948804763
:1002900009480047FEE7FEE7FEE7FEE7FEE7FEE768
:1002A000FEE7FEE7FEE7FEE704480549054A064B80
:1002B00070470000992F0008AD0100087811002058
:1002C00078170020781300207813002070477047BB
:1002D000704710B500F008F8006810BD10B504466E
:1002E00000F002F8046010BD0048704718110020AB
:1002F00000487047181100207546FFF7F9FFAE4619
:1003000005006946534620F00700854618B020B521
:10031000FFF7CAFFBDE820404FF000064FF000078E
:100320004FF000084FF0000B21F00701AC46ACE89D
:10033000C009ACE8C009ACE8C009ACE8C0098D460A
:10034000704710B50446AFF300802046BDE810406A
:10035000FFF795BF01491820ABBEFEE7260002005B
:10036000704700BFFEE7000000B589B001210820FA
:1003700002F068FB0121480602F074FB092200210B
:100380003A4801F06DFA09220121384801F068FA73
:100390000320079002208DF8200007A9334801F0C0
:1003A00081F9334800F0BCF904A800F0F4FB002008
:1003B0008DF816008DF817008DF818008DF81900CB
:1003C0008DF81A0001208DF81B0000208DF8120016
:1003D0008DF8130008208DF8140003208DF8150007
:1003E000ADF8100004A9224800F0D3FA00208DF8DF
:1003F0000A008DF80B0001208DF80C000020ADF8EC
:100400000000ADF80200ADF80400ADF80600ADF84C
:10041000080001208DF80D00684600F09DF90122CA
:100420000221134800F0ACFA01221146104800F0F6
:10043000A7FA14208DF8200002208DF82100012059
:100440008DF822008DF8230008A801F01DFE13206E
:100450008DF8200001208DF821008DF822008DF804
:10046000230008A801F010FE09B000BD000C0240F6
:100470000064004000B585B002210B4800F0F0F99F
:1004800078B10221084800F0F7F80849064800F062
:10049000D7F86A460021044800F005FB684600F0E2
:1004A0003BFD05B000BD00000064004008000032C4
:1004B00010B50121044800F0D3F918B10121024818
:1004C00000F0DAF810BD00000064004000B589B00B
:1004D0000121022002F0B6FA0121480602F0C2FA18
:1004E0000121880602F0BEFA09220C213C4801F0E5
:1004F000B7F909220D213A4801F0B2F94FF4405002
:10050000079002208DF8200007A9354801F0CAF8AD
:10051000344800F005F904A800F03DFB00208DF8F8
:1005200016008DF817008DF818008DF819008DF859
:100530001A0001208DF81B0000208DF812008DF8A4
:10054000130008208DF8140003208DF81500ADF875
:10055000100004A9234800F01CFA0E208DF80A00B0
:1005600000208DF80B0001208DF80C000020ADF864
:100570000000ADF80200ADF80400ADF80600ADF8DB
:10058000080001208DF80D00684600F0E5F8012212
:100590000221144800F0F4F901221146114800F03C
:1005A000EFF940208DF8200001208DF82100022075
:1005B0008DF8220001208DF8230008A801F064FDC9
:1005C0003F208DF8200002208DF821008DF82200B8
:1005D00001208DF8230008A801F056FD09B000BDE8
:1005E000000402400068004000B585B002210B48BD
:1005F00000F036F978B10221084800F03DF80849CA
:10060000064800F01DF86A460021044800F04BFA45
:10061000684600F063FB05B000BD000000680040C4
:100620000800003210B50121044800F019F918B192
:100630000121024800F020F810BD000000680040D1
:1006400000220C4B994202D10023836111E0C1F3D7
:10065000130201F000730BB1C2600AE001F0806385
:100660000BB1026105E001F000630BB1826000E0B4
:10067000426070477000F030B1F5007F3AD00FDC77
:10068000202928D006DC01291CD004291DD00829E6
:1006900040D11DE0402921D0B1F5807F3AD126E03C
:1006A000B1F5004F31D006DCB1F5806F25D0B1F542
:1006B000006F2FD124E0B1F5803F12D0B1F5003F9B
:1006C00028D111E0154A826025E00822C26022E0AC
:1006D0001022C2601FE0082202611CE010220261A9
:1006E00019E00822426016E01022426013E0042262
:1006F000426010E0042242600DE0042242600AE001
:10070000002282610422426005E00022826104220C
:10071000426000E000BF00BF70470000010101001F
:1007200010B504460B48844209D10121480602F065
:10073000A9F900214FF0007002F0A4F908E00121AE
:10074000880602F09FF900214FF0806002F09AF9CC
:1007500010BD00000064004010B50021837A012222
:1007600002FA03F13D4A126842F001023B4B1A6063
:100770003A4A1C3212688A43384B1C331A60027B97
:10078000CAB9364A0C3212688A43344B0C331A60A9
:100790004288C38842EA0343304A4032847A42F8AE
:1007A00034300288838842EA03432C4A4032847AF8
:1007B00002EBC4025360027B012A19D1274A0C3292
:1007C00012680A43254B0C331A604288038842EAB8
:1007D0000343224A4032847A42F83430C288838804
:1007E00042EA03431D4A4032847A02EBC40253605A
:1007F000C27A3AB9194A121D12688A43174B1B1D57
:100800001A6006E0154A121D12680A43134B1B1D9D
:100810001A60028932B9114A143212688A430F4BA6
:1008200014331A600289012A06D10C4A1432126864
:100830000A430A4B14331A60427B012A06D1074A45
:100840001C3212680A43054B1C331A60034A1268B3
:1008500022F00102014B1A6010BD0000006600404A
:1008600070B504460D46002660692840002871D006
:10087000B5F5807F5CD010DC082D35D006DC012D6D
:1008800020D0022D24D0042D72D127E0102D31D09C
:10089000202D35D0402D6BD138E0B5F5004F60D01C
:1008A00009DCB5F5007F49D0B5F5806F4CD0B5F5C2
:1008B000006F5DD14FE0B5F5803F2DD0B5F5003F1D
:1008C00056D12FE0A0682D4900F09CFB064651E070
:1008D000E068032100F096FB06464BE0E068082143
:1008E00000F090FB064645E0E068102100F08AFB2E
:1008F00006463FE02069032100F084FB064639E00C
:100900002069082100F07EFB064633E020691021B3
:1009100000F078FB06462DE06068082100F072FBCD
:10092000064627E06068102100F06CFB064621E0D7
:10093000A069012100F066FB06461BE0A0690221C8
:1009400000F060FB064615E0A069042100F05AFBA8
:1009500006460FE00FE0A069702100F053FB064649
:1009600008E06068042100F04DFB064602E0FFE766
:10097000002600BF00E00026304670BD01010100E6
:100980001AB143690B43436102E043698B434361FE
:10099000704730B5024600200023146824F002049A
:1009A0001460146844F00104146000E05B1C546897
:1009B00004F001041CB94FF6FF74A342F6D1546849
:1009C00004F001040CB900206CE08C79012C04D1F6
:1009D000146844F08004146003E0146824F0800478
:1009E0001460CC79012C04D1146844F040041460E4
:1009F00003E0146824F0400414600C7A012C04D144
:100A0000146844F02004146003E0146824F0200407
:100A100014604C7A012C04D1146844F01004146062
:100A200003E0146824F0100414608C7A012C04D1C3
:100A3000146844F00804146003E0146824F0080407
:100A40001460CC7A012C04D1146844F004041460BE
:100A500003E0146824F0040414608C78A407CD78B3
:100A600044EA05640D7944EA05444D7944EA0554A5
:100A70000D886D1E2C43D461146824F001041460A9
:100A8000002300E05B1C546804F001041CB14FF625
:100A9000FF74A342F6D1546804F001040CB10020A5
:100AA00000E0012030BD10B500F5D87303EB011351
:100AB0001B6803F004031372137A53B900F5D8735B
:100AC00003EB01131B6840F2FF7404EA53531360F5
:100AD00009E000F5D87303EB01131B686FF0604465
:100AE00004EAD303536000F5D87303EB01131B68CA
:100AF00003F00203537200F5D87303EB01135B6834
:100B000003F00F03937200F5D87303EB01135B68D6
:100B10001B0AD37400F5D87303EB01139B68D372DF
:100B200000F5D87303EB01139B681C0A147300F5DE
:100B3000D87303EB01139B681C0C547300F5D87336
:100B400003EB01139B681B0E937300F5D87303EB43
:100B50000113DB68D37300F5D87303EB0113DB6873
:100B60001C0A147400F5D87303EB0113DB681C0C2A
:100B7000547400F5D87303EB0113DB681B0E9374F8
:100B800021B9C36843F02003C36003E0036943F065
:100B90002003036110BD00218171C1710172417296
:100BA0008172C1728170C170032101710221417192
:100BB00001210180704710B502460020936803F0C0
:100BC0008063B3F1806F00D110E0936803F000639D
:100BD000B3F1006F01D1012008E0936803F0805366
:100BE000B3F1805F01D1022000E00420042874D01A
:100BF00002F5C07303EB00131B6803F0010402F558
:100C0000C07303EB00131C600B7A7BB94B7A0C8822
:100C100043EA445302F5C07404EB001424682343F0
:100C200002F5C07404EB0014236010E00B7A4C68EA
:100C300043EAC4034C7A234302F5C07404EB001466
:100C40002468234302F5C07404EB001423608B7AFC
:100C500003F00F038B7202F5C07303EB00135B68A4
:100C600023F00F0402F5C07303EB00135C6002F580
:100C7000C07303EB00135B688C7A234302F5C074E6
:100C800004EB001463608B7B1C064B7B44EA03443B
:100C90000B7B44EA0323CC7A234302F5C07404EBB4
:100CA0000014A3608B7C1C064B7C44EA03440B7C41
:100CB00044EA0323CC7B234302F5C07404EB001405
:100CC000E36002F5C07303EB00131B6843F00104FB
:100CD00002F5C07303EB00131C6010BD10B5044691
:100CE00080480068401C7F4908602068A0F201200D
:100CF000082876D2DFE800F00412202E3C4A58661D
:100D000078480068322804D82146774800F0EAFD88
:100D100003E02146744801F017F963E07148006868
:100D2000322804D82146714800F0DCFD03E021465A
:100D30006E4801F009F955E06A480068322804D885
:100D400021466B4800F0CEFD03E02146684801F0E3
:100D500069F847E063480068322804D821466548AE
:100D600000F0C0FD03E02146624801F05BF839E085
:100D70005C480068322804D821465F4800F0B2FD84
:100D800003E021465C4801F0DFF82BE0554800689D
:100D9000322804D82146594800F0A4FD03E021463A
:100DA000564801F0D1F81DE04E480068322804D8BA
:100DB0002146534800F096FD03E02146504801F0DB
:100DC000C3F80FE047480068322805D821464D484F
:100DD00000F088FD04E004E021464A4801F0B4F840
:100DE00000E000BF00BF4848006801283AD1214612
:100DF0003D4800F077FD21463C4800F073FD00209F
:100E000039494860C8600874886148639FED3F0AAB
:100E1000084680ED0E0A9FED3E0B80ED100B9FED16
:100E20003C0B80ED120B9FED390A80ED140A002077
:100E30002E494860C8600874886148639FED330A92
:100E4000084680ED0E0A9FED320B80ED100B9FEDF2
:100E5000300B80ED120B9FED2D0A80ED140A00205F
:100E6000294908602848006802283AD121462248CA
:100E700000F038FD2146214800F034FD00201E49D5
:100E80004860C8600874886148639FED200A08467E
:100E900080ED0E0A9FED1E0B80ED100B9FED1C0BDD
:100EA00080ED120B9FED190A80ED140A0020134902
:100EB0004860C8600874886148639FED140A08465A
:100EC00080ED0E0A9FED120B80ED100B9FED100BC5
:100ED00080ED120B9FED0D0A80ED140A00200A49E7
:100EE000086010BD54070020580E0020B00E0020EE
:100EF000080F0020600F0020B80F00201010002005
:100F000068100020C0100020080800200000000029
:100F1000000000000000000010B5044632480068E0
:100F2000401C314908602068A0F20120062858D2F0
:100F3000DFE800F003111F2D3B492B4800683228E1
:100F400004D82146294800F0CDFC03E0214627487B
:100F500000F0FAFF46E024480068322804D8214611
:100F6000234800F0BFFC03E02146214800F0ECFFDD
:100F700038E01D480068322804D821461D4800F09A
:100F8000B1FC03E021461B4800F0DEFF2AE01648D2
:100F90000068322804D82146174800F0A3FC03E07B
:100FA0002146154800F0D0FF1CE00F4800683228A9
:100FB00004D82146114800F095FC03E021460F4873
:100FC00000F0C2FF0EE008480068322804D821462D
:100FD0000B4800F087FC03E02146094800F0B4FF0D
:100FE00000E000BF00BF10BD50070020480C0020EB
:100FF000A00C0020F80C0020500D0020A80D0020AF
:10100000000E00200246002002EA01030BB101207D
:1010100000E000207047000080B91F49D1ED000AB0
:10102000F4EEC00AF1EE10FA1AD8D1ED000A9FEDE5
:101030001B1A70EE810AC1ED000A11E001280FD1E0
:101040001549D1ED000AF4EEC00AF1EE10FA07DB03
:10105000D1ED000A9FED111A70EEC10AC1ED000A30
:101060000D49D1ED000AF5EEC00AF1EE10FA04D2F6
:10107000DFED0B0AC1ED000A0DE00749D1ED000AD2
:101080009FED081AF4EEC10AF1EE10FA03DDDFED70
:10109000050AC1ED000A704730080020CDCCCC3ED7
:1010A000000000000000874380B91F49D1ED000A0D
:1010B000F4EEC00AF1EE10FA1AD8D1ED000A9FED55
:1010C0001B1A70EE810AC1ED000A11E001280FD150
:1010D0001549D1ED000AF4EEC00AF1EE10FA07DB73
:1010E000D1ED000A9FED111A70EEC10AC1ED000AA0
:1010F0000D49D1ED000AF5EEC00AF1EE10FA04D266
:10110000DFED0B0AC1ED000A0DE00749D1ED000A41
:101110009FED081AF4EEC10AF1EE10FA03DDDFEDDF
:10112000050AC1ED000A7047340800209A99993EDB
:10113000000000000000344380B91F49D1ED000ACF
:10114000F4EEC00AF1EE10FA1AD8D1ED000A9FEDC4
:101150001B1A70EE810AC1ED000A11E001280FD1BF
:101160001549D1ED000AF4EEC00AF1EE10FA07DBE2
:10117000D1ED000A9FED111A70EEC10AC1ED000A0F
:101180000D49D1ED000AF5EEC00AF1EE10FA04DDCA
:10119000DFED0B0AC1ED000A0DE00A49D1ED000AAE
:1011A0009FED091AF4EEC10AF1EE10FA03D2DFED59
:1011B000060AC1ED000A704734080020CDCC4C3D32
:1011C00000000000300800200000FAC280B91F496A
:1011D000D1ED000AF4EEC00AF1EE10FA1AD8D1ED02
:1011E000000A9FED1B1A70EE810AC1ED000A11E0A2
:1011F00001280FD11549D1ED000AF4EEC00AF1EE35
:1012000010FA07DBD1ED000A9FED111A70EEC10A4A
:10121000C1ED000A0D49D1ED000AF5EEC00AF1EE6C
:1012200010FA04D2DFED0B0AC1ED000A0DE0074908
:10123000D1ED000A9FED081AF4EEC10AF1EE10FAA2
:1012400003DDDFED050AC1ED000A7047300800201C
:10125000CDCC4C3E000000000000874380B91F4900
:10126000D1ED000AF4EEC00AF1EE10FA1AD8D1ED71
:10127000000A9FED1B1A70EE810AC1ED000A11E011
:1012800001280FD11549D1ED000AF4EEC00AF1EEA4
:1012900010FA07DBD1ED000A9FED111A70EEC10ABA
:1012A000C1ED000A0D49D1ED000AF5EEC00AF1EEDC
:1012B00010FA04DDDFED0B0AC1ED000A0DE007496D
:1012C000D1ED000A9FED081AF4EEC10AF1EE10FA12
:1012D00003D2DFED050AC1ED000A70473008002097
:1012E000CDCC4C3D00000000000087C310B50020AD
:1012F0003C4908603C4908609FED3C0A3C4880ED51
:10130000000A9FED3A0A3B4880ED000A9FED370A3C
:10131000394880ED000A9FED350A384880ED000A13
:101320009FED320A364880ED000A9FED300A3548BD
:1013300080ED000A9FED2D0A334880ED000A334806
:1013400001F074F8324801F071F8324801F06EF89B
:10135000314801F06BF8314801F068F8304801F08D
:1013600065F8304801F062F82F4801F05FF82F4827
:1013700001F05CF82E4801F059F82E4801F056F8BB
:101380002D4801F053F82D4801F050F82C4801F099
:101390004DF82C4801F04AF82B4801F047F82B484B
:1013A00001F044F82A4801F041F82A4801F03EF8DB
:1013B000294801F03BF8294801F038F8284801F0A5
:1013C00035F8284801F032F8274801F02FF8B0EE40
:1013D0000C0A184880ED040AB0EE0C0A164880ED9D
:1013E000040A10BD64000020680000200000000016
:1013F0002C08002030080020340800203808002085
:101400003C080020400800204408002090000020F4
:10141000D80000202001002068010020B001002039
:10142000F80100204002002088020020D0020020A5
:101430001803002060030020A8030020C00600203D
:1014400008070020F00300203804002010050020C9
:101450005805002030060020780600208004002077
:10146000C8040020A0050020E805002021B1026882
:1014700042F00102026003E0026822F00102026011
:1014800070470000016821F0010101600021016046
:1014900041608160C1600161212141614A49884206
:1014A00004D13D21484A103A91608CE046491831F8
:1014B000884205D14FF47461434A103A916082E04A
:1014C00041493031884205D14FF474113E4A103AF7
:1014D000916078E03C494831884205D14FF0746111
:1014E000394A103A91606EE037496031884204D140
:1014F0003649354A103AD16065E03349783188423F
:1015000004D13349304A103AD1605CE02E49903121
:10151000884204D12F492C4A103AD16053E02A491D
:10152000A831884205D14FF03D51274A103AD16089
:1015300049E02949884204D13D21274A083A1160EF
:1015400041E025491831884205D14FF47461224A9F
:10155000083A116037E020493031884205D14FF414
:1015600074111D4A083A11602DE01B494831884228
:1015700005D14FF07461184A083A116023E016490A
:101580006031884204D11149134A121F11601AE0D8
:1015900011497831884204D10D490F4A121F116058
:1015A00011E00D499031884204D10A490A4A121FBC
:1015B000116008E00849A831884204D14FF03D513C
:1015C000054A121F11607047106002403D00002064
:1015D000400F002000003D201064024021B102684D
:1015E00042F48022026003E0026822F4802202605A
:1015F000704722B1036843F40023036003E00368EB
:1016000023F400230360016170470146486880B2FB
:101610007047014600200A6802F400220AB1012046
:1016200000E000207047000010B500220268134B54
:101630001A40CC680B6823434C6923438C692343CD
:10164000CC6923430C6A23434C6A23438C6A2343AB
:101650004C6B23438C6B23431A430260426922F094
:101660000702D1E90B3423431A4342610B694360FB
:101670004B6883608B68C36010BD00003F801CF026
:101680000021016041608160C1600161416181614F
:10169000C161016241628162C16201634163816330
:1016A00070477047F0B50A4600210023002400BFB0
:1016B0003DE0012505FA01F3156805EA03049C42A3
:1016C00034D105684F000326BE40B5430560157947
:1016D0004E00B5400668354305601579012D02D0EE
:1016E0001579022D16D185684F000326BE40B543FB
:1016F000856055794E00B5408668354385604568FC
:1017000001268E40B5434560456896798E40B6B255
:1017100035434560C5684F000326BE40B543C560EC
:10172000D5794E00B540C6683543C560491C1029BF
:10173000BFD3F0BD1CB50121082001F083F94FF49F
:101740006040009000208DF8040003208DF8050013
:1017500001208DF8070069460148FFF7A3FF1CBD73
:10176000000C02401CB50121102001F06BF9402053
:10177000009001208DF8040000208DF80600032061
:101780008DF8050001208DF8070069460348FFF732
:1017900089FF4021014800F098F81CBD001002406C
:1017A0001CB50121102001F04DF9202000900120EE
:1017B0008DF8040000208DF8060003208DF8050048
:1017C00001208DF8070069460348FFF76BFF2021D1
:1017D000014800F07CF81CBD001002401CB501213E
:1017E000202001F02FF90120009000208DF8040046
:1017F00003208DF8050001208DF807006946024896
:10180000FFF750FF1CBD0000001402401CB5012171
:10181000802001F017F93C20009001208DF8040091
:1018200000208DF8060003208DF8050001208DF8BA
:10183000070069460948FFF735FF2021074800F0F7
:1018400044F80821054800F040F81021034800F052
:101850003CF80421014800F038F81CBD001C02408F
:10186000F0B5002300244D07ED0E02FA05F3CE106B
:1018700000F1200555F826504E07F70E0F26BE4002
:10188000B543CF1000F1200646F82750CE1000F1E6
:10189000200555F8265045EA0304CE1000F1200536
:1018A00045F82640F0BD0246002013690B400BB1FD
:1018B000012000E0002070470246002053690B40E1
:1018C0000BB1012000E00020704741837047018385
:1018D00070474FF6FF710160002101714171817104
:1018E000C17170470A7BCB7A42EA032242614269A6
:1018F000026042698260704730B5034613B94FF603
:10190000FF7030BD09E013F8014B82EA0400C0B259
:10191000054D35F8100080EA2222081EA1F10101D0
:10192000F1D11046EDE700009EEB000830B503460C
:1019300005E013F8010B80EA02040448025D081E6A
:10194000A1F10101F5D1104630BD00009EEA00086A
:101950004FF08040406A704700BFFEE700B9704713
:1019600010F8101F427801EB022109B200EE101AA4
:10197000B8EEC00ABDEEC00A10EE101A09B2684AED
:1019800011808178C27801EB022109B200EE101AB1
:10199000B8EEC00ABDEEC00A10EE101A09B2604AD5
:1019A00051800179427901EB022109B200EE101A4F
:1019B000B8EEC00ABDEEC00A10EE101A09B2584ABD
:1019C0009180817BC27B01EB022109B200EE101AEB
:1019D000B8EEC00ADFED530A80EE201A524981EDBD
:1019E000001A017C427C01EB022109B200EE101AC0
:1019F000B8EEC00ADFED4B0A80EE201A4A4981EDAD
:101A0000011A817CC27C103801EB022109B200EE80
:101A1000101AB8EEC00AF2EE040A80EE201A43490A
:101A200081ED001A424991ED000A424981ED000A18
:101A30003E4991ED000A3E4981ED000A91ED000A10
:101A40003C49D1ED000A30EE600ADFED3B0AB4EE0E
:101A5000E00AF1EE10FA04DD38490968491E374AF8
:101A60001160334991ED000A3249D1ED000A30EEA0
:101A7000600ADFED330AB4EEE00AF1EE10FA04D2A8
:101A80002E490968491C2D4A11602C4909684FF4F8
:101A9000B472514300EE101AB8EEC00A2449D1EDD9
:101AA000000A30EE200A204981ED020A91ED000A79
:101AB000B1EE400ADFED230A30EE200AF2EE040A0E
:101AC00020EE200ABDEEC00A10EE101A09B21E4A1E
:101AD0001180164991ED000AB1EE400ADFED1B0AB4
:101AE00030EE200AF2EE040A20EE200ABDEEC00A13
:101AF00010EE101A09B2164A11800E4991ED000A33
:101B0000144981ED000A0A4991ED000A124981ED5C
:101B1000000A0A490968114A116000BF1FE7000066
:101B2000280000200000C842D40900202400002022
:101B300048000020440000200000964340000020A0
:101B4000000096C30000B4422E0000200000344381
:101B50003000002034000020380000203C0000202D
:101B6000024612B101200D4B18700C48007860B18C
:101B7000088800F4805040B10020084B1870088895
:101B800000F4805040B101207047088800F4805074
:101B900010B90120014B18700020F5E71200002059
:101BA000024612B101200D4B18700C48007860B14C
:101BB000088800F4006040B10020084B18700888C5
:101BC00000F4006040B101207047088800F4006014
:101BD00010B90120014B18700020F5E7110000201A
:101BE000024612B101200D4B18700C48007860B10C
:101BF000087800F0200040B10020084B18700878E9
:101C000000F0200040B101207047087800F020006B
:101C100010B90120014B18700020F5E710000020DA
:101C2000F0EE400A90ED070A90ED001A20EE010A4E
:101C300080ED010A90ED080A90ED071AD0ED051A23
:101C400001EE210A80ED030A90ED030A90ED091AD6
:101C500030EE010A90ED031AC1EE001AC0ED061A2B
:101C600090ED010A90ED061AD0ED011A70EEE11A1E
:101C700001EE210A80ED020A90ED060AB7EE001A85
:101C800031EE400A90ED031A20EE010A80ED040ABD
:101C900090ED040A80ED050A90ED020A80ED000A3D
:101CA00090ED020A704700BFFEE7000010B52DED71
:101CB000048B82B0494890ED0D0ABDEEC00A10EECB
:101CC000100A00B20090464890ED0D0ABDEEC00A21
:101CD00010EE100A03B2434890ED0D0ABDEEC00AA3
:101CE00010EE100A02B2404890ED0D0ABDEEC00A97
:101CF00010EE100A01B23D4801F036F83C4890ED74
:101D00000D0A10EE101A08460CF04EFE41EC190BAD
:101D10009FED380B53EC102B0CF01CFC41EC180B16
:101D20000CF082FB04B200200090344890ED0D0AC4
:101D3000BDEEC00A10EE100A01B2002322462B4865
:101D400001F040F82E4890ED0D0ABDEEC00A10EEED
:101D5000100A00B200902B4890ED0D0ABDEEC00AAB
:101D600010EE100A03B2284890ED0D0ABDEEC00A2D
:101D700010EE100A02B2254890ED0D0ABDEEC00A21
:101D800010EE100A01B2224801F04AF8214890ED05
:101D90000D0ABDEEC00A10EE100A00B200901E48F7
:101DA00090ED0D0ABDEEC00A10EE100A03B21B48FA
:101DB00090ED0D0ABDEEC00A10EE100A02B21848EE
:101DC00090ED0D0ABDEEC00A10EE100A01B21048E7
:101DD00001F054F802B0BDEC048B10BD6801002086
:101DE00020010020D8000020900000200064004066
:101DF00088020020333333333333F33F4002002073
:101E00007806002030060020A80300206003002090
:101E100000680040E8050020A0050020C80400205C
:101E2000800400202DE9F0412DED088B04460D467D
:101E300000260027B04620686060287BE97A40EAE7
:101E400001202060A97B687B41EA00200FFA80F81E
:101E5000242098FBF0F000EE100AB8EEC00A84EDE2
:101E60000E0A20686168401AE060E06810F5805F43
:101E700007DA606B401C6063E06800F50050A06109
:101E80000DE0E068B0F5805F07DD606B401E6063C9
:101E9000E068A0F50050A06101E0E068A061A269DF
:101EA000207C411C217404F11C0141F82020216890
:101EB000606B01EB4030A060616B4FF4B47201FBCA
:101EC00002F00CF0E0FA9FED1A0B53EC102B0CF023
:101ED00053F941EC180B21686269881A0CF0D3FAA7
:101EE0009FED150B53EC102B0CF034FB9FED140BF6
:101EF00053EC102B0CF040F953EC182B0CF088F835
:101F000041EC100B84ED100B207C062801D1002041
:101F10002074002605E004F11C0050F82600074458
:101F2000761C062EF7DBBDEC088BBDE8F0810000C7
:101F300000000000000042400000000000002440BB
:101F4000000000000000C0402DE9F0412DED0A8B9B
:101F500004460D460026B0460027002008EE100A71
:101F600020686060287BE97A40EA012020602068D0
:101F70006168401AE060E06810F5805F07DA606B26
:101F8000401C6063E06800F50050A0610DE0E0686F
:101F9000B0F5805F07DD606B401E6063E068A0F510
:101FA0000050A06101E0E068A061A269207C411CB2
:101FB000217404F11C0141F820202168606B01EBC1
:101FC0004030A060616B4FF4B47201FB02F00CF082
:101FD0005AFA9FED260B53EC102B0CF0CDF841EC88
:101FE000190B21686269881A0CF04DFA9FED210BDC
:101FF00053EC102B0CF0AEFA9FED200B53EC102B92
:102000000CF0BAF853EC192B0CF002F841EC100B61
:1020100084ED100B207C062801D1002020740026BE
:1020200005E004F11C0050F826008044761C062EC2
:10203000F7DBA97B687B41EA002007B2132097FBFE
:10204000F0F000EE100AB8EEC00A84ED0E0A297C0A
:10205000E87B41EA002000B208EE100AB8EEC80A98
:1020600084ED140ABDEC0A8BBDE8F081000000008D
:102070000000334028AFA1BC86F2324000000000CF
:102080000000C0407047000070B5002100230F22FF
:10209000C4781CB3174C246804F4E064C4F5E0640D
:1020A000C4F30721C1F10404E3B20A4144789C401F
:1020B000E1B28478144021430C07210E0E4C0578C0
:1020C0006155047804F01F050124AC4005786D11BA
:1020D000AD0005F1E025C5F8004109E0047804F001
:1020E0001F050124AC40054D0678761145F82640C1
:1020F00070BD00000CED00E000E400E080E100E0D5
:1021000002490143024A1160704700000000FA05CD
:102110000CED00E000B590ED000AD0ED010A30EEC4
:10212000600A80ED020A90ED020AD0ED110AB4EEC9
:10213000E00AF1EE10FA0ADA90ED020AD0ED110A87
:10214000F1EE600AB4EEE00AF1EE10FA69D290ED19
:10215000040AD0ED020A20EE200A80ED070AD0ED35
:102160000A1AB0EE611AD0ED0A1AF1EE611AF0EE19
:10217000610AD0ED071AB0EE610A01F043FF80ED6D
:10218000070A90ED080AD0ED050A90ED021A00EE5C
:10219000810A80ED080AD0ED0B1AB0EE611AD0ED7D
:1021A0000B1AF1EE611AF0EE610AD0ED081AB0EEEA
:1021B000610A01F027FF80ED080A90ED020AD0EDD8
:1021C000030A30EE600AD0ED060A20EE200ADFEDA9
:1021D000200A20EE200AD0ED090A9FED1E1A00EE1B
:1021E000810A80ED090AD0ED0C1AB0EE611AD0ED2B
:1021F0000C1AF1EE611AF0EE610AD0ED091AB0EE98
:10220000610A01F0FFFE80ED090A90ED070AD0EDAA
:10221000080A30EE200AD0ED090A30EE200A80EDDF
:102220000D0AD0ED0E1AB0EE611AD0ED0E1AF1EED5
:10223000611AF0EE610AD0ED0D1AB0EE610A01F0FC
:10224000E1FE80ED0D0A90ED020A80ED030A00BD6B
:102250003333333F9A99993E00B5012101EE901A2C
:1022600090ED000AD0ED010A30EE600A80ED020A1E
:1022700090ED020AD0ED110AB4EEE00AF1EE10FA88
:102280000ADA90ED020AD0ED110AF1EE600AB4EE1E
:10229000E00AF1EE10FA7CD290ED040AD0ED020AC9
:1022A00020EE200A80ED070A90ED0A2AB0EE421ACD
:1022B00090ED0A2AB1EE422AF0EE420A90ED072A8A
:1022C000B0EE420A01F09EFE80ED070A90ED020A90
:1022D000BDEEC00A10EE101A002901DB0A4600E02C
:1022E0004A42C82A03DD002101EE901A1EE090ED5B
:1022F000020ADFED4B0AB4EEE00AF1EE10FA03D267
:10230000012101EE901A11E090ED020ABDEEC00A23
:1023100010EE101A002901DB0A4600E04A42C2F121
:10232000C802142392FBF3F201EE902A90ED050A05
:10233000D0ED020A20EE200AD0ED050A90ED031A36
:1023400000EE810AF8EEE10A20EE200AB0EE001A53
:10235000C0EE010A90ED080A30EE800A80ED080A0E
:1023600090ED0B2AB0EE421A90ED0B2AB1EE422A04
:10237000F0EE420A90ED082AB0EE420A01F042FE69
:1023800080ED080A90ED020AD0ED030A30EE600AF3
:1023900000E02DE0D0ED060A20EE200ADFED210A54
:1023A00020EE200AD0ED090A9FED1F1A00EE810AE7
:1023B00080ED090A90ED0C2AB0EE421A90ED0C2A3D
:1023C000B1EE422AF0EE420A90ED092AB0EE420A3E
:1023D00001F018FE80ED090A90ED070AD0ED080A19
:1023E00030EE200AD0ED090A30EE200A80ED0D0A09
:1023F00090ED0E2AB0EE421A90ED0E2AB1EE422A6E
:10240000F0EE420A90ED0D2AB0EE420A01F0FAFD1C
:1024100080ED0D0A90ED020A80ED030A00BD000078
:10242000000034433333333F9A99993E9FED100AAD
:1024300080ED000A9FED0E0A80ED010A9FED0C0A67
:1024400080ED020A9FED0A0A80ED030A9FED080A5B
:1024500080ED070A9FED060A80ED080A9FED040A49
:1024600080ED090A9FED020A80ED0D0A7047000019
:102470000000000010B58AB00446ED49A06988420A
:1024800074D10121082000F0DDFA0121042000F0C0
:10249000E9FA02208DF8240000208DF826006068FB
:1024A000089001208DF8270003208DF8250008A949
:1024B000A068FFF7F7F8204600F00EFDA27BA18987
:1024C000A068FFF7CDF9208A80B2ADF81400002093
:1024D000ADF81600606906900020ADF81C008DF87C
:1024E0001E0005A9A06900F0E3FF6020ADF8000020
:1024F0000120ADF802000420ADF804000220ADF880
:102500000C000020ADF80E004FF48070ADF8100004
:102510000020ADF81200E0690290206A012804D082
:10252000022807D003280FD109E06946A06900F00E
:1025300093FE0EE06946A06900F0D6FE09E0694608
:10254000A06900F023FF04E06946A06900F06EFF77
:1025500000BF00BF0121A06900F052FE0121B44874
:1025600000F030FE0121A06900F03EFEB149A069F3
:10257000884273D10121084600F064FA0121080263
:1025800000F060FA0121082000F06CFA02208DF8BA
:10259000240000208DF826006068089001208DF846
:1025A000270003208DF8250008A9A068FFF77AF816
:1025B000204600F091FCA27BA189A068FFF750F9AA
:1025C000208A80B2ADF814000020ADF816006069D2
:1025D00006900020ADF81C008DF81E0005A9A0692A
:1025E00000F066FF6020ADF800000120ADF80200A9
:1025F0000420ADF804000020ADF80C00ADF80E008A
:102600004FF48070ADF810000020ADF81200E069C2
:102610000290206A012804D0022807D003280FD195
:1026200009E06946A06900F017FE0EE06946A0695E
:1026300000F05AFE09E06946A06900F0A7FE04E038
:102640006946A06900F0F2FE00BF00BF0121A06949
:1026500000F0D6FD0121A06900F0C6FD7649A06911
:1026600088426FD10121022000F0ECF90121022003
:1026700000F0F8F902208DF8240000208DF82600E3
:102680006068089001208DF8270003208DF8250050
:1026900008A9A068FFF706F8204600F01DFCA27B01
:1026A000A189A068FFF7DCF8208A80B2ADF8140099
:1026B0000020ADF81600606906900020ADF81C00FF
:1026C0008DF81E0005A9A06900F0F2FE6020ADF8AB
:1026D00000000120ADF802000420ADF80400002045
:1026E000ADF80C00ADF80E004FF48070ADF810009E
:1026F0000020ADF81200E0690290206A012804D0A1
:10270000022807D003280FD109E06946A06900F02C
:10271000A3FD0EE06946A06900F0E6FD09E0694608
:10272000A06900F033FE04E06946A06900F07EFE77
:1027300000BF00BF0121A06900F062FD0121A06976
:1027400000F052FD3D49A06988426FD101218015FA
:1027500000F078F90121022000F0A4F902208DF8A0
:10276000240000208DF826006068089001208DF874
:10277000270003208DF8250008A9A068FEF792FF26
:10278000204600F0A9FBA27BA189A068FFF768F8AA
:10279000208A80B2ADF814000020ADF81600606900
:1027A00006900020ADF81C008DF81E0005A9A06958
:1027B00000F07EFE6020ADF800000120ADF80200C0
:1027C0000420ADF804000020ADF80C00ADF80E00B8
:1027D0004FF48070ADF810000020ADF81200E069F1
:1027E0000290206A012804D0022807D003280FD1C4
:1027F00009E06946A06900F02FFD0EE06946A06976
:1028000000F072FD09E06946A06900F0BFFD04E038
:102810006946A06900F00AFE00BF00BF0121A0695F
:1028200000F0EEFC0121A06900F0DEFC0AB010BD52
:1028300000080040000C004000040040000401407B
:1028400000B589B00E4802908014019002208DF8E6
:102850000E000C4806900120089042F2107005907E
:1028600042F2BE300790A72004906846FFF702FEB0
:1028700042F2BE31034800F015FE09B000BD000071
:10288000000C02400008004000B589B00E480290DC
:102890002020019003208DF80E000C4806900120A6
:1028A000089042F2107005904FF47A700790A720BC
:1028B00004906846FFF7DEFD40F2A461034800F093
:1028C000F1FD09B000BD00000020024000040140FD
:1028D00000B589B00E4802904020019003208DF889
:1028E0000E000C4806900220089042F210700590ED
:1028F0004FF47A700790A72004906846FFF7BAFD5E
:1029000040F2A461034800F0CFFD09B000BD000013
:1029100000200240000401407047000080B91F49B8
:10292000D1ED000AF4EEC00AF1EE10FA1AD8D1ED9A
:10293000000A9FED1B1A70EE810AC1ED000A11E03A
:1029400001280FD11549D1ED000AF4EEC00AF1EECD
:1029500010FA07DBD1ED000A9FED121A70EEC10AE2
:10296000C1ED000A0D49D1ED000AF5EEC00AF1EE05
:1029700010FA04D2DFED0C0AC1ED000A0DE00749A0
:10298000D1ED000A9FED091AF4EEC10AF1EE10FA3A
:1029900003DBDFED060AC1ED000A70472C080020BA
:1029A0009A99993F6666663F0000000000408344A4
:1029B00080B91F49D1ED000AF4EEC00AF1EE10FA19
:1029C0001AD8D1ED000A9FED1B1A70EE810AC1EDF5
:1029D000000A11E001280FD11549D1ED000AF4EEEB
:1029E000C00AF1EE10FA07DBD1ED000A9FED121AD2
:1029F00070EEC10AC1ED000A0D49D1ED000AF5EEF5
:102A0000C00AF1EE10FA04D2DFED0C0AC1ED000AA3
:102A10000DE00749D1ED000A9FED091AF4EEC10A55
:102A2000F1EE10FA03DBDFED060AC1ED000A704794
:102A30002C0800206666663F9A99193F0000000046
:102A40000040834429B1064A12680243044B1A60CD
:102A500004E0034A12688243014B1A607047000089
:102A60003038024029B1064A12680243044B1A600A
:102A700004E0034A12688243014B1A607047000069
:102A80004038024029B1064A12680243044B1A60DA
:102A900004E0034A12688243014B1A607047000049
:102AA0002038024029B1064A12680243044B1A60DA
:102AB00004E0034A12688243014B1A607047000029
:102AC0004438024029B1064A12680243044B1A6096
:102AD00004E0034A12688243014B1A607047000009
:102AE00024380240F0B500210022002402250026EF
:102AF0000223324F3F6807F00C0121B1042905D0B1
:102B0000082937D105E02E4F076036E02D4F0760CA
:102B100033E02A4F3F1F3F68C7F38056274F3F1FC0
:102B20003F6807F03F036EB1264FB7FBF3F7DFF8BE
:102B30008CC0ACF1040CDCF800C0CCF3881C07FBA3
:102B40000CF40CE01E4FB7FBF3F7DFF870C0ACF1EC
:102B5000040CDCF800C0CCF3881C07FB0CF4174F06
:102B60003F1F3F68C7F301477F1C7D00B4FBF5F7AB
:102B7000076002E0124F076000BF00BF0F4F3F68C1
:102B800007F0F0010909104F7A5C0768D7404760E9
:102B90000A4F3F6807F4E051890A0B4F7A5C476897
:102BA000D7408760054F3F6807F46041490B064FE7
:102BB0007A5C4768D740C760F0BD00000838024023
:102BC0000024F400001BB7000000002001460C4860
:102BD00000680B4A5268904201D1012070470848B2
:102BE00002680830805C087005480068401C044A90
:102BF0001060642801DB002010600020EEE7000078
:102C0000F20A00200E494A68083188540839496898
:102C1000491C0B4A5160642901DB002151600849BD
:102C20004968074A1268914208D105490968491C58
:102C3000034A1160642901DB002111607047000024
:102C4000F20A0020704700000CB5002001900090AF
:102C50004148006840F480303F49086000BF3E486A
:102C6000006800F4003000900198401C019000982A
:102C700018B90198B0F5A04FF1D13748006800F4B9
:102C8000003010B10120009001E000200090009879
:102C9000012860D130484030006840F080502E4913
:102CA000403108602D48006840F440402B490860DE
:102CB000294808300068284908310860084600683B
:102CC00040F4004008600846006840F4A0500860E6
:102CD0002348091F0860081F006840F08070091F22
:102CE000086000BF1C48006800F000700028F9D0A0
:102CF0001A48006840F480301849086000BF17483F
:102D0000406800F480300028F9D01448006840F48E
:102D100000301249086000BF1048406800F40030DD
:102D20000028F9D040F205700E4908600A480830C2
:102D3000006820F003000849083108600846006870
:102D400040F00200086000BF03480830006800F04F
:102D50000C000828F8D10CBD00380240007000407B
:102D60000C544007003C02402DE9F04186B08046FB
:102D70000C4615461E460C9F4FF400700190002033
:102D80008DF80C008DF80D0008208DF80E00200A3B
:102D90008DF80F008DF81040290A8DF811108DF86C
:102DA0001250310A8DF813108DF81460390A8DF81D
:102DB00015108DF8167001A94046FDF7FCFE06B00F
:102DC000BDE8F0812DE9F04186B080460C461546FD
:102DD0001E460C9F40F2FF10019000208DF80C0061
:102DE0008DF80D0008208DF80E00200A8DF80F00D8
:102DF0008DF81040290A8DF811108DF81250310A03
:102E00008DF813108DF81460390A8DF815108DF8AF
:102E1000167001A94046FDF7CEFE06B0BDE8F08170
:102E20002DE9F04186B080460C4615461E460C9FA3
:102E30004FF40070019000208DF80C008DF80D000B
:102E400008208DF80E00200A8DF80F008DF8104034
:102E5000290A8DF811108DF81250310A8DF81310CF
:102E60008DF81460390A8DF815108DF8167001A9C7
:102E70004046FDF7A0FE06B0BDE8F0812DE9F04127
:102E800086B080460C4615461E460C9F40F2FF1049
:102E9000019000208DF80C008DF80D0008208DF8B1
:102EA0000E00200A8DF80F008DF81040290A8DF8C9
:102EB00011108DF81250310A8DF813108DF814602E
:102EC000390A8DF815108DF8167001A94046FDF7E6
:102ED00072FE06B0BDE8F081416880293ED010DC6A
:102EE00008292FD006DC012923D0022924D0042967
:102EF0004CD124E0102928D0202929D0402945D1BF
:102F000029E0B1F5006F35D009DCB1F5807F28D01C
:102F1000B1F5007F28D0B1F5806F37D127E0B1F54A
:102F2000805F2AD0B1F5005F2AD0B1F5804F2DD156
:102F300029E0002181812CE00121818129E0022109
:102F4000818126E00321818123E00421818120E029
:102F5000052181811DE0062181811AE007218181FF
:102F600017E00821818114E00921818111E00A2103
:102F700081810EE00B2181810BE00C21818108E031
:102F80000D21818105E00E21818102E00F218181E7
:102F900000BF00BF7047704710B51548006840F487
:102FA0007000134908601348006840F0010011499F
:102FB000086000200F49083108600E4800680E497B
:102FC00008400C4908600D48091D0860081F00688A
:102FD00020F48020091F0860002006490C31086099
:102FE000FFF732FE4FF0006001498039086010BDE4
:102FF00088ED00E000380240FFFFF6FE10300024AC
:103000000EB501210846FFF72DFD4FF0FF3001906E
:103010005320ADF800000020ADF80800ADF8020024
:1030200069464FF0804000F043FA0121880700F024
:10303000C9F80121880700F0D7F80EBD10B50121AD
:10304000880700F0EFF838B10121880700F0C9F8CF
:103050000121880700F0C2F810BD000010B530480B
:10306000007800F08000002851D102212D4800F0A6
:10307000D9F860B32A48007800F0400098B90020E1
:1030800027490870284908800021264800F00EFAD8
:103090002348007840F0400021490870022121486F
:1030A00000F018F913E01E48007800F0400070B1FD
:1030B0001B48007840F0800019490870194800F05A
:1030C000AEF8194908800021164800F003F90121E3
:1030D000144800F0A7F8D0B11148007800F0400083
:1030E000A8B10F48007800F03F003F280AD10C48F3
:1030F000007840F080000A4908704FF6FF700A49D6
:10310000088004E006480078401C05490870022148
:10311000044800F066F80121024800F062F810BD92
:103120004C000020000C00404E00002010B5012192
:10313000074800F077F848B10121054800F051F840
:103140000121034800F04AF802F06EF810BD0000BB
:10315000001000400EB501211020FFF783FC532022
:10316000ADF800000020ADF80200ADF8080040F214
:10317000E73001906946094800F09AF936208DF849
:10318000080000208DF809008DF80A0001208DF854
:103190000B0002A8FEF778FF0EBD000000100040F3
:1031A00010B50121064800F01FF80122114604481D
:1031B00000F049F80121024800F010F810BD0000AD
:1031C0000010004021B1028842F08002028004E039
:1031D00002884FF67F731A4002807047CA4302820A
:1031E0007047CA430282704721B1028842F001024F
:1031F000028004E002884FF6FE731A400280704796
:1032000031B1B0F8442042F40042A0F8442005E077
:10321000B0F84420C2F30E02A0F8442070470146E3
:10322000486B704730B50246002000230024158A01
:1032300005EA0103958905EA010413B10CB10120E7
:1032400000E0002030BD1AB183890B43838102E086
:1032500083898B438381704770B50024002200234B
:10326000058C4FF6FE7635400584028C8388048BEE
:103270004FF68F752C40B51E2C400D882C43751EC3
:103280002A408D892A434D882A43104DA84202D0F6
:103290000F4DA84213D14FF6F7752A40CD892A4326
:1032A0004FF6FB752A408D882A434FF6FF652B4069
:1032B0004FF6FF552B400D8A2B434D8A2B438380BD
:1032C00004838D684563028470BD000000000140E6
:1032D000000401400A460021018C4FF6FD7319409D
:1032E000114301847047000070B5002400220023C0
:1032F000058C4FF6EF7635400584028C8388048B6D
:1033000048F6FF752C404FF6FF452C400D884FF6D0
:10331000FF7606EA05252C434FF6DF752A408D8996
:1033200006EA05152A434D8806EA05152A43154D78
:10333000A84202D0144DA8421DD14FF67F752A40F5
:10334000CD894FF6FF7606EA05152A434FF6BF757D
:103350002A408D8806EA05152A434FF6FF352B4093
:103360004FF2FF752B400D8A06EA85052B434D8AE7
:1033700006EA85052B43838004838D688563028478
:1033800070BD0000000001400004014070B5002441
:1033900000220023058C4FF6FF6635400584028C21
:1033A0008388848B4FF68F752C404FF6FC752C402C
:1033B0000D882C434FF6FF552A408D894FF6FF7636
:1033C00006EA05252A434D8806EA05252A43154DB8
:1033D000A84202D0144DA8421DD14FF2FF752A40D9
:1033E000CD894FF6FF7606EA05252A434FF6FF35CD
:1033F0002A408D8806EA05252A434EF6FF752B40A4
:103400004DF6FF752B400D8A06EA05152B434D8AB4
:1034100006EA05152B43838084838D68C563028487
:1034200070BD0000000001400004014070B50022A2
:1034300000230024058C4EF6FF7635400584038C6E
:103440008488828B48F6FF752A404FF6FF452A4054
:103450000D884FF6FF7606EA05252A434DF6FF75DF
:103460002B408D8906EA05352B434D8806EA053544
:103470002B430A4DA84202D0094DA84208D14BF671
:10348000FF752C400D8A4FF6FF7606EA85152C4312
:10349000848082838D680564038470BD00000140D0
:1034A0000004014041637047816370474162704787
:1034B00000220288184B98420ED0184B98420BD02D
:1034C000B0F1804F08D0164B984205D0154B98426A
:1034D00002D0154B984204D14FF68F731A404B8897
:1034E0001A43124B984207D0114B984204D04FF622
:1034F000FF431A400B891A4302804B68C3620B8852
:103500000385054B984202D0044B984201D18B7A37
:1035100003860123838270470000014000040140BC
:103520000004004000080040000C00400010004073
:103530000014004010B540F22441294800F08EFCF0
:1035400000284CD0002027490860254800882448DE
:1035500080882548FEF75DF800BB00212248FDF772
:1035600085FF2148FEF751F8C0F11E001F49086091
:103570001E201D49091D0860081F006840F4002036
:10358000091F086001211848FDF770FF17480068FF
:10359000122824D116480AF0A3FB20E0002112488B
:1035A000FDF764FF1048FEF730F8C0F11E000F4928
:1035B00008601E200C49091D0860081F006820F4DF
:1035C0000020091F086001210748FDF74FFF074849
:1035D0000068122803D106481E300AF081FB10BD96
:1035E00000100140140000208864024018000020F0
:1035F000FC08002000B58FB001210220FFF722FA5D
:1036000001218805FFF71EFA01211020FFF74AFA71
:10361000072211464248FEF723F90DA8FEF759F993
:1036200080200D9002208DF8380000208DF83900A0
:1036300001208DF83B000DA93948FEF733F83948D1
:1036400000F094FB09A800F0C7FC3748099000205F
:10365000ADF82800ADF82A004FF48060ADF82C00DA
:103660000420ADF82E000020ADF8300009A92D4847
:1036700000F044FC012240212A4800F06DFB0122A9
:1036800040F22441274800F013FC0121254800F0B6
:1036900057FB2648FDF7F6FE6846FDF7F1FF4FF0B1
:1036A000006000901F48001D0190214802900020FA
:1036B00003901E200490002005904FF48060069037
:1036C0000020079008904FF48070099000020A9043
:1036D00000200B900C900D900E9069461348FDF75A
:1036E000A3FF002212491E311048FDF782FF01217D
:1036F0000E48FDF773FF01210C48FDF7B7FE2520AA
:103700008DF8380000208DF8390002208DF83A003D
:1037100001208DF83B000EA8FEF7B6FC0FB000BDEF
:103720000004024000100140A086010088640240AD
:10373000FC08002070B540F22441774800F08EFB71
:1037400000286FD0744800887348001D00887348B3
:10375000FDF75FFF18BB00217048FDF787FE6F483B
:10376000FDF753FFC0F16C006D4908606C206B4998
:103770002839C8620846806A40F400208862012126
:103780006648FDF773FE002404E06649085DFFF714
:1037900039FA641C624800688442F6D323E00021B1
:1037A0005E48FDF763FE5D48FDF72FFFC0F16C003A
:1037B0005B4908606C2059492839C8620846806A0C
:1037C00020F40020886201215448FDF74FFE0024B8
:1037D00005E054496C31085DFFF714FA641C504849
:1037E00000688442F5D38DE04F4840684E4909682F
:1037F000401A03D400204D49088002E064204B4960
:10380000088049480068602807DB4748006863284B
:1038100003DC64204649088002E000204449088017
:10382000002505E076E043494819FFF7CFF96D1C04
:10383000052DF8DB3F4800793F490870FF2204213D
:103840003C48FEF773F83D4908703B48007809781A
:10385000884257D1374840783649897840EA012074
:1038600037490880304840683049098801442E486B
:1038700000682F4A12881044401F091A30480088F7
:103880000930814235DB002505E02A49491D4819E8
:10389000FFF79CF96D1C2A480088001D8542F4DB67
:1038A00027480088C01D2349095C25480088083046
:1038B000204A105C41EA0020224908802048008804
:1038C000C11D4FF6FF721B48FEF716F81E4908800F
:1038D0001C4800880988884214D11648407901287C
:1038E00010D11448807902280CD1124801F022FD31
:1038F00008E00D4800680E4909880844401F0A493D
:10390000086006E0084840680749096888427FF473
:103910006BAF00BF70BD000000480040286002404F
:1039200060000020E0090020F20A0020580000207A
:103930005A000020B80A002050000020510000204A
:1039400056000020520000205400002000B58FB027
:1039500001210820FFF776F801214805FFF772F8EA
:1039600001218804FFF77EF8072208214348FDF76C
:1039700077FF072209214148FDF772FF4FF440709D
:103980000D9002208DF838008DF8390000208DF858
:103990003A0001208DF83B000DA93848FDF782FE62
:1039A000374800F0E3F909A800F016FB4FF4E130C6
:1039B00009900020ADF82800ADF82A00ADF82C00E1
:1039C000ADF830000C20ADF82E0009A92C4800F00D
:1039D00095FA012240212A4800F0BEF9012240F266
:1039E0002441274800F064FA0121254800F0A8F995
:1039F0002448FDF747FD6846FDF742FE4FF00060A2
:103A000000901F48001D01901F4802900020039065
:103A10006C200490002005904FF4806006900020F8
:103A2000079008904FF48070099000020A900020DF
:103A30000B900C900D900E9069461248FDF7F4FD26
:103A4000002211496C310F48FDF7D3FD01210D48CB
:103A5000FDF7C4FD01210B48FDF708FD27208DF877
:103A6000380003208DF839008DF83A0001208DF8D8
:103A70003B000EA8FEF708FB0FB000BD000C024093
:103A80000048004028600240E009002000B58FB0E7
:103A900001214020FEF7D6FF01212020FFF702F888
:103AA00001218805FEF7CEFF082209213F48FDF7D6
:103AB000D7FE4FF400700D9002208DF838000020E2
:103AC0008DF83A0003208DF8390000208DF83B0076
:103AD0000DA93648FDF7E6FD4FF4E13009900020CE
:103AE000ADF82800ADF82A00ADF82C000420ADF8A0
:103AF0002E000020ADF8300009A92D4800F0FEF995
:103B0000012240212A4800F027F90121284800F02D
:103B100017F9012240F22441254800F0C9F925484F
:103B2000FDF7B0FC6846FDF7ABFD4FF0206000905C
:103B30001F48001D0190204802900020039048205B
:103B40000490002005904FF48060069000200790BC
:103B500008904FF48070099000020A9000200B90AA
:103B60000C900D900E9069461248FDF75DFD002205
:103B7000114948310F48FDF73CFD01210D48FDF783
:103B80002DFD01210B48FDF771FC47208DF8380011
:103B900002208DF8390000208DF83A0001208DF8C0
:103BA0003B000EA8FEF770FA0FB000BD00180240EF
:103BB00000140140406402403809002010B5002084
:103BC0002A49086040F22441294800F047F90028BA
:103BD0004AD0274800882648001D00882548FDF760
:103BE00018FD00BB00212348FDF740FC2148FDF7EC
:103BF0000CFDC0F148001D49086048201D49091D01
:103C00000860081F006840F40020091F08600121B7
:103C10001848FDF72BFC15480068292824D11648C0
:103C2000FDF79CFE20E000211248FDF71FFC114823
:103C3000FDF7EBFCC0F148000C49086048200D4935
:103C4000091D0860081F006820F40020091F086093
:103C500001210848FDF70AFC04480068292803D11F
:103C600005484830FDF77AFE10BD00001C0000201A
:103C700000140140406402403809002000B587B0BC
:103C800001211020FEF7DEFE01218807FEF7EAFE83
:103C9000082207212848FDF7E3FD0822114626489F
:103CA000FDF7DEFD4FF4C070059002208DF818007E
:103CB0008DF8190000208DF81A0001208DF81B00E6
:103CC00005A91D48FDF7EEFC1C4800F04FF801A8BF
:103CD00000F082F94FF4165001900020ADF8080072
:103CE000ADF80A00ADF80C00ADF810000C20ADF8EE
:103CF0000E0001A9114800F001F9012240210F48EE
:103D000000F02AF8012240F224410C4800F0D0F8DB
:103D100001210A4800F014F852208DF81800032001
:103D20008DF819008DF81A0001208DF81B0006A8E7
:103D3000FEF7AAF907B000BD00100240007800406D
:103D400021B1828942F40052828104E082894DF6D9
:103D5000FF731A40828170471AB1838A0B438382B2
:103D600002E0838A8B4383827047000010B50446CB
:103D70003248844208D101211020FEF7A3FE002121
:103D80001020FEF79FFE57E02D48844209D1012103
:103D90004804FEF777FE00214FF40030FEF772FE74
:103DA0004AE02848844209D101218804FEF76AFECE
:103DB00000214FF48020FEF765FE3DE0224884425A
:103DC00009D10121C804FEF75DFE00214FF4002057
:103DD000FEF758FE30E01D48844209D10121080554
:103DE000FEF750FE00214FF48010FEF74BFE23E05B
:103DF0001748844208D101212020FEF763FE0021EC
:103E00002020FEF75FFE17E01248844209D101210D
:103E10008807FEF737FE00214FF08040FEF732FEA4
:103E20000AE00D48844207D101214005FEF72AFE31
:103E300000216005FEF726FE10BD000000100140C5
:103E40000044004000480040004C0040005000404A
:103E50000014014000780040007C004070B502462C
:103E6000002400230025002040F66A16B14200D14C
:103E700000BFC1F3421501F01F03012606FA03F348
:103E8000012D02D19689334006E0022D02D1168A17
:103E9000334001E0968A33400C12012606FA04F4FE
:103EA0001688344013B10CB1012000E0002070BD31
:103EB000F0B50346002400260025002040F66A17CE
:103EC000B94200D100BF1846C1F3421401F01F06E9
:103ED000012707FA06F5012C01D10C3004E0022C71
:103EE00001D1103000E014301AB107682F43076089
:103EF00002E00768AF430760F0BD00002DE9FF470F
:103F000005460E460024A14600BFA046B08900B178
:103F100000BF2C8A24F44054F08804432C82AC89DE
:103F200041F20C608443B0883189084371890843A9
:103F30000443AC81AC8A24F44074B0890443AC825D
:103F40006846FEF7CFFD2048854202D01F488542D3
:103F500002D1DDF80C9001E0DDF80890A88900F4AA
:103F6000004040B109EBC90000EB0910316849007D
:103F7000B0FBF1F707E009EBC90000EB091031686D
:103F80008900B0FBF1F76420B7FBF0F004012009D1
:103F9000642101FB1078A88900F4004040B1322070
:103FA00000EBC800B0FBF1F000F00700044308E0AC
:103FB000322000EB08106421B0FBF1F000F00F009C
:103FC00004432C81BDE8FF8700100140001401402C
:103FD000C1F30802828070474FF41651016000213E
:103FE0008180C18001810C21418100218181704744
:103FF00000BFFEE7884201DC084602E0904200DB99
:1040000010467047B4EEE00AF1EE10FA02D8B0EEB6
:10401000600A06E0B4EEC10AF1EE10FA01DBB0EE80
:10402000410A704710B50648007806490978884269
:1040300004D00448007808B9FDF758F910BD000015
:10404000870000208600002003B4019841000098FA
:1040500050EAC12018BF04204A0D18BF40F00100EB
:1040600040F2FF72B2EB515F08BF40F0020001283E
:1040700008BF052002B0704710B52F499FED2C1BDB
:104080002DED020B84B0059820F000408842D8BF87
:104090009DED040B2DDD2949884209D1049840B9D2
:1040A0004FF00100FCF71AF900F03EFC06B010BD1D
:1040B00005DB9DED040B00F02BFC06B010BD68463F
:1040C0009DED040B00F03CF810F0030004BF9DEDE3
:1040D000021B9DED000B0CD001280ED09DED021BA4
:1040E0009DED000B022817D0012000F079FB06B0EF
:1040F00010BD00F041FA06B010BD9DED021B9DED14
:10410000000B012000F06CFB51EC100B09F042FF9A
:1041100006B041EC100B10BD00F02EFA51EC100B64
:1041200009F038FF06B041EC100B10BD0000000094
:104130000000000000000000FB21E93F0000F07FCC
:104140002DE9F14F04462DED020B2DED088B8AB0C1
:104150009FEDE70B80ED020B139EE74826F000452C
:1041600085420ADC9DED120B002084ED000B0AB0A5
:10417000BDEC088B03B0BDE8F08FE0489FEDE0ABED
:104180009FEDE1BBA84247DDE14F9FEDE39B9FED33
:10419000E48B9DED120B53EC1A2B51EC100B002EFF
:1041A0001CDD0AF017FB41EC100BBD4208D053ECAC
:1041B0001B2B51EC100B0AF00DFBC4E900010BE0C6
:1041C00053EC192B51EC100B0AF004FB53EC182B99
:1041D0000AF000FBC4E900010120C8E709F018FF5C
:1041E00041EC100BBD4208D053EC1B2B51EC100BD3
:1041F00009F00EFFC4E900010BE053EC192B51EC60
:10420000100B09F005FF53EC182B09F001FFC4E96E
:1042100000014FF0FF30AAE7C348A84279DB9DEDCB
:10422000120B51EC100B01F043F841EC180B9FED11
:10423000C00B53EC102B0AF08DF99FEDBF1B53EC14
:10424000112B09F0E5FE0AF0EFF807460AF01BF91A
:1042500041EC190B53EC1A2B0AF07CF953EC182B98
:104260000AF0ACFA41EC180B53EC1B2B51EC190B78
:104270000AF070F9DFF8C8A241EC100B4FEA1558AC
:104280000125FA4453EC102B51EC180B0AF0A2FA5A
:10429000032DC4E900013DD0C1F30A5005EB4511DF
:1042A000A8EB00001139814234DA0AEB051BB0EEAD
:1042B00048AA9BED000BF0EE68AA53EC102B51ECD2
:1042C000190B0AF047F941EC1B0B51EC1A0B53EC9C
:1042D0001B2B0AF07FFA41EC180B51EC1A0B53EC34
:1042E000182B0AF077FA53EC1B2B0AF073FA9BEDAC
:1042F000020B41EC1A0B53EC102B51EC190B0AF08A
:1043000029F953EC1A2B0AF065FA41EC100B6D1CDD
:10431000B8E70EE0002EA8BF3846BFF628AF94EDF0
:10432000000B51EC100B09F035FEC4E90001784296
:104330001DE7C6F3130040F4801EC6F30A50A0F236
:10434000F530471100F01F05C5F12000DDF848B039
:1043500008900020069007900520EC467949002D32
:1043600007EB0002794408BF51F8221009D051F838
:10437000223001EB8201AB404A68089922FA01F130
:104380001943A1FB0E26A1FB0B131A449A4234BF1A
:104390000123002303EB06080CEB8003D3E901A6FD
:1043A0000E448E4234BF0121002192448A4411B14F
:1043B000924502D903E0924501D2012100E000219B
:1043C000C3E901A641444CF82010011EA0F10100F0
:1043D000C4DC029800F10050850F0298DDE9036704
:1043E0008000DDF814800AF04EF841EC1A0B3046DC
:1043F0000AF060F89FED541B53EC112B0AF0AAF859
:1044000041EC1B0B38460AF055F89FED511B53EC5D
:10441000112B0AF09FF841EC180B40460AF04AF8BD
:104420009FED4D1B53EC112B0AF094F841EC190B46
:1044300051EC180B53EC192B09F0EAFD53EC1B2B34
:1044400009F0E6FD53EC1A2B09F0E2FDCDE9080175
:10445000002008909DED080B53EC1A2B51EC100B2B
:104460000AF0B8F953EC1B2B0AF0B4F953EC182BF3
:104470000AF0B0F953EC192B0AF0A0F99FED381BA4
:1044800053EC112B0AF066F89FED370B41EC180B3B
:1044900053EC102B9DED080B51EC100B0AF05AF861
:1044A00053EC182B09F0B4FD9FED310B41EC180BC8
:1044B00053EC102B9DED080B51EC100B0AF04AF851
:1044C00053EC182B09F0A4FD41EC100B139810F0DD
:1044D000004F06D06D4251EC100B09F05BFD41EC32
:1044E000100B284684ED000B41E6000000000000A0
:1044F0000000000000000000FB21E93F7CD90240E1
:1045000000004054FB21F93F3163621A61B4D03D91
:10451000FB21F93F000000000000601A61B4D03DAB
:104520007370032E8A19A33BFB2139410000000060
:1045300083C8C96D305FE43F000000000000E03F29
:104540004AAB000098AA0000000000000000103EE6
:10455000000000000000103C000000000000103AC5
:10456000182D4454FB21F93D3326A611460B113C6E
:1045700000000054FB21F93D10B52DED040B2DED8D
:10458000088B82B0B0EE419AF0EE619A0B9820F061
:1045900000449FED4BABB4F1795F11DA9DED0A0B4E
:1045A00051EC100B09F040FF002801BFB0EE4A0AA1
:1045B000F0EE6A0A02B0BDEC088B04BF04B010BD77
:1045C0009DED0A0B53EC102B51EC100B09F0C2FFC0
:1045D00041EC180B3C480621B0EE480AF0EE680AA0
:1045E000784400F081F853EC182B51EC100B09F0D3
:1045F000B1FF9DED0A0B41EC1B0B53EC192B51EC59
:10460000100B09F0A7FF41EC190B53EC1B2B51ECDD
:10461000180B09F09FFF53EC192B0AF0DBF89FED04
:104620002C0B41EC190B53EC102B51EC180B09F02F
:1046300091FF41EC100B2848844210DA53EC192BFF
:1046400051EC100B0AF0C6F853EC1A2B0AF0B6F82E
:1046500041EC100B02B0BDEC088B04B010BD1F483C
:10466000A042BCBF9FED1E1B8DED001B06DBA4F519
:1046700000100190002000909DED001B51EC100BEC
:1046800053EC112B0AF0A6F89DED000B41EC180B32
:1046900053EC102B51EC1A0B0AF09CF841EC1A0B5E
:1046A00053EC192B51EC180B0AF094F853EC1A2B1D
:1046B0000AF084F841EC100BCCE700000000000089
:1046C000000000000000F03FBCA700000000000058
:1046D000000000000000E03F3333D33F0000E93F1B
:1046E000000000000000D23F70B504462DED028BA3
:1046F0004D1E00EBC500B0EE408AF0EE608A90EDF2
:10470000000B35F0060017D053EC182B51EC100BB2
:1047100009F020FF41EC100B6D1E04EBC50090ED7D
:10472000001B51EC100B53EC112B09F071FC41EC08
:10473000100B35F00600E7D1022D36D0042D1CD029
:10474000062D1CBFBDEC028B70BD53EC182B51EC39
:10475000100B09F0FFFE94ED0A1B53EC112B09F02E
:1047600057FC53EC182B09F0F5FE94ED081B53ECA5
:10477000112B09F04DFC41EC100B53EC182B51ECB4
:10478000100B09F0E7FE94ED061B53EC112B09F01A
:104790003FFC53EC182B09F0DDFE94ED040B53ECB9
:1047A000102B09F035FC41EC100B53EC182B51EC9D
:1047B000100B09F0CFFE94ED021B53EC112B09F006
:1047C00027FC53EC182B09F0C5FE94ED001B53ECAD
:1047D000112B09F01DFCBDEC028B41EC100B70BDE0
:1047E00031B504462DED040B2DED0A8BB0EE41BA28
:1047F000F0EE61BA0B989DED0A0B20F00040B0F18D
:10480000795F0DDA51EC100BFFF71EFC042808BF8E
:1048100000F09AF89DED0A0BBDEC0A8B05B030BD97
:1048200053EC102B51EC100B09F094FE41EC180BDB
:104830009DED0A0B53EC182B51EC100B09F08AFE7E
:1048400041EC190B2C48B0EE480AF0EE680A05213D
:104850007844FFF749FF9FED2ACBB0EE40AAF0EE77
:1048600060AA9CB353EC1C2B51EC190B09F072FE9F
:1048700041EC1C0B53EC1A2B51EC190B09F06AFE9E
:104880009FED210B41EC190B53EC102B51EC1B0B42
:1048900009F060FE53EC192B09F09CFF53EC182B28
:1048A00009F058FE53EC1B2B09F094FF53EC1C2B22
:1048B00009F090FF9DED0A1B53EC112B09F07EFFD0
:1048C000BDEC0A8B05B041EC100B30BDFFE753EC9B
:1048D0001A2B51EC180B09F03DFE53EC1C2B09F080
:1048E00097FB53EC192B09F035FE9DED0A1B53EC99
:1048F000112B09F08DFBE3E744A600000000000047
:10490000495555555555C5BF000000000000E03F12
:1049100010B553EC102B51EC100B09F079FB41EC66
:10492000100B10BD000000009FED050B10B553ECFF
:10493000102B51EC100B09F01FFC41EC100B10BDBB
:1049400000000000000000009FED050B10B553ECC7
:10495000102B51EC100B09F0FDFD41EC100B10BDBC
:10496000000000000000001010B5FCF7E3FEFEF7A9
:10497000EDFF4FF4A060FDF7C3FBFFF77FF9FEF7F3
:10498000E9FBFEF70DFCFEF73BFBFEF733FEFBF702
:10499000EBFCFBF79BFDFCF739FFFCF7E3FEFCF7B4
:1049A000FFFEFCF71BFFFDF76FFFFDF791FFFDF723
:1049B00047FFFFF76BF800F0CBFC10BD10B52648A1
:1049C000007880BB25480078012819D12448006868
:1049D00058B94FF4FA70234908804FF416702249F1
:1049E000088040102149088019E04FF42F701D49BC
:1049F00008801D4908804FF4C8701C4908800EE0EB
:104A00001B4801681B48FEF74DFD4FF42F701549F8
:104A10000880154908804FF4C870144908800020A8
:104A20001549086017E0FFE70B480078012812D10C
:104A300042F238210F48FEF735FD4FF4FA7009496C
:104A400008804FF416700849088040100749088014
:104A500001200949086010BD8C0000208B00002057
:104A6000A407002026080020280800202A0800208B
:104A70009007002000080040F807002010B56649A4
:104A8000B1F904004FF4AF725142FFF7B3FA624933
:104A9000888088800846B0F900004042B1F90210D1
:104AA000401A5D49B1F90410084400EE100AB8EE4E
:104AB000C00A5A4880ED000A5748B0F9000056492C
:104AC000B1F90210401A5449B1F90410084400EE3B
:104AD000100AB8EEC00A524880ED000A4E48B0F9FC
:104AE00000004D49B1F9021008444B49B1F90410D6
:104AF000084400EE100AB8EEC00A4A4880ED000AE9
:104B00004548B0F9000040424349B1F90210084459
:104B10004149B1F90410084400EE100AB8EEC00A89
:104B2000414880ED000A414890ED0E0A3B4880ED77
:104B3000010A3F4890ED0E0A394880ED010A3D48D0
:104B400090ED0E0A374880ED010A3B4890ED0E0AC1
:104B5000354880ED010A3148C16B88473048C16B48
:104B600088473048C16B88472F48C16B88472B481E
:104B7000D0ED0D0AB0EE600A3048D0ED000AB8EE74
:104B8000E01A0068404200EE900AF8EEE00AFFF7F3
:104B900039FA224880ED0D0A2148D0ED0D0AB0EE19
:104BA000600A2648D0ED000AB8EEE01A00684042DC
:104BB00000EE900AF8EEE00AFFF724FA184880EDBC
:104BC0000D0A1848D0ED0D0AB0EE600A1B48D0ED72
:104BD000000AB8EEE01A0068404200EE900AF8EED3
:104BE000E00AFFF70FFA0F4880ED0D0A0E48D0EDEE
:104BF0000D0AB0EE600A1148D0ED000AB8EEE01AD6
:104C00000068404200EE900AF8EEE00AFFF7FAF979
:104C1000054880ED0D0A10BD7600002090000020B0
:104C2000D80000202001002068010020480C00204E
:104C3000A00C0020F80C0020500D002004080020DB
:104C400010B5F7480078F749087000F07BFB05289D
:104C500076D2DFE800F0768603455D000020F24959
:104C60000870F2490870F2490870F2490870F24978
:104C70000870F2490870F2490870F2490870F24968
:104C80000870F249087000F04FFB02280AD000F0CB
:104C90001BFB032806D10020E14908700220E149EE
:104CA00008701CE000F040FB02280AD000F00CFB6A
:104CB000012806D10320DA4908700220D94908707A
:104CC0000DE000F031FB022809D000F0FDFA0228C7
:104CD00005D10420D24908700220D249087093E21D
:104CE00000F022FB022804D1CD4908700320CD49F1
:104CF000087000F019FB022809D000F0E5FA03283B
:104D000005D10020C64908700320C64908707BE21F
:104D100000F00AFB022804D1C14908700420C149EF
:104D2000087000F001FB022809D000F0CDFA03283A
:104D300005D10020BA4908700420BA49087063E21E
:104D400061E200F0F1FA022802D1B549087007E0EB
:104D5000BF480068B0F57A7F02D90120B0490870D9
:104D600052E200F0E1FA022801D1AD490870B148E1
:104D7000007801280CD1B748007818B90120B6494D
:104D800008700BE00020B4490870AA49087005E0DB
:104D9000A848007810B90020AF490870AB480078E7
:104DA00001280CD1AC48007818B90120A949087035
:104DB0000BE00020A7490870A449087005E0A3484B
:104DC000007810B90020A3490870A4480078102882
:104DD0007DD2DFE800F0087D93C3D9FCFBFA7CF9B3
:104DE000F8F7F6F5F4F390480078012809D100F0BF
:104DF00071FA30B90120994908700020984908706B
:104E000064E08948007801280AD100F063FA01289B
:104E100006D102209149087000209149087055E0A0
:104E200081480078012809D100F054FA022805D100
:104E30008A49087000208A49087047E07A4800785B
:104E4000012809D100F046FA032805D183490870EA
:104E500000208349087039E077480078012806D19E
:104E60000E207E49087000207D4908702EE07648AB
:104E70000078012809D100F02DFA30B90B207749CC
:104E8000087000207649087020E06F4800780128FB
:104E90000ED100F01FFA012803D000F01BFA0228FF
:104EA00006D10C206D49087000206D4908700DE096
:104EB00065480078012809D100F00CFA032805D1D3
:104EC0000D206649087000206549087099E197E156
:104ED0005B480078012806D1002060490870012055
:104EE0005F49087009E051480078012805D1042085
:104EF0005A49087001205A49087082E150480078E8
:104F0000012806D100205549087002205449087034
:104F100023E04648007801280DD100F0DBF918B1F4
:104F200000F0D8F9022806D105204C49087002206B
:104F30004B49087011E03D48007801280DD100F080
:104F4000C9F9032803D000F0C5F9012805D10620CE
:104F50004249087002204249087052E138480078FE
:104F6000012806D100203D49087003203C49087003
:104F700009E02E480078012805D10620374908703D
:104F80000320374908703CE12D480078012806D1FC
:104F900000203249087004203149087025E0224879
:104FA0000078012814D100F095F9012810D10220D1
:104FB0002A49087004202A49087016E097E081E029
:104FC00009E1FDE0F1E0C6E0A6E0D9E058E00DE03F
:104FD00015480078012808D100F07CF928B9012093
:104FE0001E49087004201E4908700AE11448007820
:104FF000012806D1002019490870052018490870B9
:105000003DE00948007801282CD100F063F903281D
:1050100028D1124908700520114908702FE00000BE
:1050200086000020870000201E08002023080020A2
:1050300021080020200800201C0800201D08002056
:10504000220800201B0800201A0800201F0800204A
:10505000640000208C0000208B00002088000020CD
:105060008900002069480078012808D100F032F951
:10507000022804D166490870052066490870C0E01E
:1050800065480078012805D1002061490870062094
:10509000604908705D480078012808D100F01AF9CD
:1050A000032804D15A49087006205A4908705B4801
:1050B0000078012805D10F20554908700620554970
:1050C00008709EE054480078012805D1002050491E
:1050D00008700E204F49087051480078012805D10A
:1050E00009204B4908700E204A49087089E04A4857
:1050F0000078012805D10020454908700F20454956
:10510000087048480078012805D10A2040490870F5
:105110000F204049087074E03F480078012805D10D
:1051200000203B49087009203A4908703D48007842
:10513000012805D10A203649087009203549087030
:1051400036480078012805D10E2031490870092021
:105150003049087055E030480078012805D100201A
:105160002B4908700A202B4908702C480078012828
:1051700005D10E20264908700A202649087040E013
:1051800025480078012805D1002021490870072012
:105190002049087022480078012805D109201C49BF
:1051A000087007201B4908702BE01B480078012875
:1051B00005D10020164908700B201649087020E020
:1051C00015480078012805D10020114908700C20ED
:1051D0001049087015E010480078012805D100201A
:1051E0000B4908700D200B4908700C480078012805
:1051F00005D10F200649087006200649087000E016
:1052000000BF00BF00E000BF00BF10BD1E080020AF
:105210008800002089000020220800201C080020AF
:105220001D0800201A08002010B51A48007801282F
:1052300005D119480068401C1749086002E00020A9
:105240001549086015480078012805D11448006800
:10525000401C1349086002E0002011490860114811
:105260000078012805D110480068401C0E490860EC
:1052700002E000200C4908600C480068401C0B4903
:105280000860FFF7DDFCFEF7CDFE00F09BF8FCF7B1
:105290000DFD10BD1C080020680000201A08002029
:1052A0006C0000201D080020700000206400002019
:1052B00082B0CDE9000121F0004001909DED000B8E
:1052C00002B051EC100B70470148007870470000A5
:1052D0007D0000201248007820B91248007808B9F3
:1052E000002070470E480078012804D10D4800784E
:1052F00008B90120F5E70A48007828B9094800787C
:10530000012801D10220ECE705480078012805D1E9
:1053100004480078012801D10320E2E700BFE0E75C
:10532000980700209C070020014800787047000083
:105330007C000020C179024A1170017A1171704716
:105340005E0B0020014800787047000086000020B6
:1053500010B5DFED070A9FED070A074800F010F8C7
:10536000DFED030A9FED030A044800F009F810BDC1
:105370000000484300002042A4080020D00800207C
:105380009FED0C1A80ED001A9FED0A1A80ED051AA8
:1053900080ED080AC0ED090AB7EE001A80ED071A81
:1053A000B7EE001A80ED0A1A90ED001A80ED011A8E
:1053B0007047000000000000FFF7D6FA01E008F097
:1053C000DDFDFCE700B58DB0FE480078052888F0CB
:1053D0000182DFE810F0D501E70105002F0002018E
:1053E0000020F9490870F9490870F9490870F9492D
:1053F0000870F94908700421F848FCF766FA402162
:10540000F748FCF762FA2021F548FCF760FA08211A
:10541000F248FCF75AFA1021F048FCF756FA20211E
:10542000EE48FCF752FA08F00DFA0020ED4908604A
:1054300008F0D0B9B0EE000AEB4880ED040A9FED09
:10544000EB0A80ED050A9FEDE90A80ED060AB1EE50
:10545000040AE74880ED040A9FEDE40A80ED050A9E
:105460009FEDE20A80ED060AB0EE000AE14880ED09
:10547000040A9FEDDE0A80ED050A9FEDDC0A80ED4F
:10548000060AB1EE040ADC4880ED040A9FEDD70A53
:1054900080ED050A9FEDD50A80ED060AD74890ED0C
:1054A000000AB1EE400AD24880ED000AD34890EDE0
:1054B000000AD14880ED000AD14890ED100B8DED27
:1054C0000A0B9DED0A0B51EC100B08F06FFDC8495B
:1054D0004860CC4890ED100B8DED0A0B9DED0A0B4A
:1054E00051EC100B08F062FDC3494860C048C06B26
:1054F0000B90BF480B998847BF48C06B0B90BE48C4
:105500000B998847BA4890ED0D0AF1EE040A20EE97
:10551000200AB54880ED000AB74890ED0D0AF1EE7B
:10552000040A20EE200AB34880ED000AB44890ED4A
:105530000E0AAD4880ED010AB24890ED0E0AAD4862
:1055400080ED010AA848C06B0B90A7480B998847CB
:10555000A848C06B0B90A7480B998847A24890EDCC
:105560000D0AA948D0ED000A30EE600A9E4880ED91
:105570000D0AA04890ED0D0AA348D0ED000A30EEC8
:10558000200A9C4880ED0D0A974890ED0D0A8DED9C
:105590000B0A9FED9E1ADFED9E0A9DED0B0AFEF7AA
:1055A00031FD914880ED0D0A924890ED0D0A8DED88
:1055B0000B0A9FED961ADFED960A9DED0B0AFEF79A
:1055C00021FD8C4880ED0D0A01209FED920AFBF72A
:1055D00045FE00208349086000BFB0EE040A8E48F3
:1055E00080ED040A9FED810A80ED050A9FED7F0A98
:1055F00080ED060AB0EE000A884880ED040A9FEDAF
:105600007B0A80ED050A9FED790A80ED060AB0EE6F
:10561000000A834880ED040A9FED740A80ED050AB4
:105620009FED720A80ED060AB0EE040A7D4880ED17
:10563000040A9FED6E0A80ED050A9FED6C0A80ED6D
:10564000060A794890ED000AB1EE400A734880EDF1
:10565000000A754890ED000A724880ED000A734810
:1056600090ED100B8DED0A0B9DED0A0B51EC100B1C
:1056700008F09CFC694948606D4890ED100B8DED79
:105680000A0B9DED0A0B51EC100B08F08FFC6549DD
:1056900048606248C06B0B9060480B99884761482E
:1056A000C06B0B905F480B9988475C4890ED0D0AE2
:1056B000F1EE040A20EE200A574880ED000A59480E
:1056C00090ED0D0AF1EE040A20EE200A544880ED18
:1056D000000A564890ED0E0A4F4880ED010A5448E2
:1056E00090ED0E0A4E4880ED010A4B48C06B0B90BE
:1056F00049480B9988474A48C06B0B9048480B991A
:105700008847454890ED0D0A3F48D0ED000A30EE3D
:10571000600A414880ED0D0A414890ED0D0A3A4873
:10572000D0ED000A30EE200A3D4880ED0D0A3A48DF
:1057300090ED0D0A8DED0B0A9FED341ADFED340A62
:105740009DED0B0AFEF75EFC334880ED0D0A3448F0
:1057500090ED0D0A8DED0B0A9FED2C1ADFED2C0A52
:105760009DED0B0AFEF74EFC2D4880ED0D0A012041
:105770009FED300AFBF7E0FC00201A49086000BFEB
:1057800001202D4908702D480078032802D10120FE
:105790001449086029480078042802D102201149E0
:1057A000086045E6FFF76AF908F044FA08F056FB8E
:1057B000FFF704F908210948FCF775F80B90102150
:1057C00006483DE086000020880000208A00002076
:1057D000200800201F08002021080020001C024093
:1057E00000100240080800206003002000000000B4
:1057F000D0020020A8030020180300203008002059
:10580000580E0020B00E00207807002000409C4574
:1058100000409CC5000087C380040020F0030020E6
:10582000C80400203804002034080020B80F0020ED
:10583000101000200000F0C21B080020870000208C
:10584000FCF731F80A900020FE4908604FF48041CF
:10585000FD48FCF728F8012803D10020FB49086027
:1058600002E00120F94908604FF40041F648FCF7D6
:105870001AF8012803D10020F549086002E0012050
:10588000F34908604FF40051EF48FCF70CF8012889
:1058900002D1F049086002E00020EE4908600421CE
:1058A000ED48FCF709F818B90020EC49086002E05F
:1058B0000120EA4908600821E748FBF7FDFF18B915
:1058C0000020E749086002E00120E5490860102156
:1058D000E148FBF7F1FF18B90020E249086002E057
:1058E0000120E04908602021DB48FBF7E5FF18B9FB
:1058F0000020DD49086002E00120DB49086040210A
:10590000DA48FBF7D0FF18B90020D949086002E057
:105910000120D74908602021D448FBF7C4FF18B9FB
:105920000020D449086002E00120D2490860D24832
:105930000078012844F0FA80D04890ED100B8DEDEE
:10594000080B9FEDCF0B53EC102B9DED080B51EC8A
:10595000100B08F0FDFE47D8C84890ED100B8DEDF8
:10596000080B9FEDC90B53EC102B9DED080B51EC70
:10597000100B08F0B3FD37D8C04890ED100B8DED3B
:10598000000B9FEDC30B53EC102B9DED000B51EC66
:10599000100B08F0DFFD9FEDC00B53EC102BCDE991
:1059A00002019DED020B51EC100B08F0E5FBCDE977
:1059B00004019DED040BFEF75FFB8DED060B9FEDE3
:1059C000B80B53EC102B9DED060B51EC100B08F0AF
:1059D000C1FDCDE908019DED080B51EC100B08F05D
:1059E000E5FAB149086056E0A44890ED100B8DED42
:1059F000080B9FEDA50B53EC102B9DED080B51EC04
:105A0000100B08F0A5FE46D29C4890ED100B8DEDD2
:105A1000080B9FEDA60B53EC102B9DED080B51ECE2
:105A2000100B08F05BFD36D8944890ED100B8DED0F
:105A3000000B9FED970B53EC102B9DED000B51ECE1
:105A4000100B08F087FD9FED940B53EC102BCDE964
:105A500002019DED020B51EC100B08F08DFBCDE91E
:105A600004019DED040BFEF707FB8DED060B9FED8A
:105A70008C0B53EC102B9DED060B51EC100B08F02A
:105A800069FDCDE908019DED080B51EC100B08F004
:105A90008DFA854908608748007818B185480078F4
:105AA000062808D184480078012804D04FF48040AB
:105AB0008249086003E041F28830804908607D48EF
:105AC0000078102884F02F80DFE810F010001A0210
:105AD0003D05080AD50D3C0F8A10E4112D201A1837
